{
  "contractName": "Permission",
  "abi": [
    {
      "constant": false,
      "inputs": [
        {
          "name": "_temp",
          "type": "address"
        }
      ],
      "name": "addNode",
      "outputs": [],
      "payable": false,
      "stateMutability": "nonpayable",
      "type": "function"
    },
    {
      "constant": false,
      "inputs": [
        {
          "name": "_temp",
          "type": "address"
        }
      ],
      "name": "addPublisher",
      "outputs": [],
      "payable": false,
      "stateMutability": "nonpayable",
      "type": "function"
    },
    {
      "constant": false,
      "inputs": [
        {
          "name": "_temp",
          "type": "address"
        },
        {
          "name": "_aHash",
          "type": "string"
        }
      ],
      "name": "addArticle",
      "outputs": [],
      "payable": false,
      "stateMutability": "nonpayable",
      "type": "function"
    },
    {
      "constant": false,
      "inputs": [
        {
          "name": "_temp",
          "type": "address"
        }
      ],
      "name": "addUser",
      "outputs": [],
      "payable": false,
      "stateMutability": "nonpayable",
      "type": "function"
    }
  ],
  "bytecode": "0x608060405234801561001057600080fd5b5061062a806100206000396000f3fe608060405260043610610062576000357c0100000000000000000000000000000000000000000000000000000000900463ffffffff168063421b2d8b146100675780635293cb20146100b8578063763f323d146101a05780639d95f1cc146101f1575b600080fd5b34801561007357600080fd5b506100b66004803603602081101561008a57600080fd5b81019080803573ffffffffffffffffffffffffffffffffffffffff169060200190929190505050610242565b005b3480156100c457600080fd5b5061019e600480360360408110156100db57600080fd5b81019080803573ffffffffffffffffffffffffffffffffffffffff1690602001909291908035906020019064010000000081111561011857600080fd5b82018360208201111561012a57600080fd5b8035906020019184600183028401116401000000008311171561014c57600080fd5b91908080601f016020809104026020016040519081016040528093929190818152602001838380828437600081840152601f19601f82011690508083019250505050505050919291929050505061029d565b005b3480156101ac57600080fd5b506101ef600480360360208110156101c357600080fd5b81019080803573ffffffffffffffffffffffffffffffffffffffff1690602001909291905050506103fa565b005b3480156101fd57600080fd5b506102406004803603602081101561021457600080fd5b81019080803573ffffffffffffffffffffffffffffffffffffffff1690602001909291905050506104d1565b005b6001600360008373ffffffffffffffffffffffffffffffffffffffff1673ffffffffffffffffffffffffffffffffffffffff16815260200190815260200160002060006101000a81548160ff02191690831515021790555050565b6102a6336105a8565b151561031a576040517f08c379a000000000000000000000000000000000000000000000000000000000815260040180806020018281038252601f8152602001807f43616e206f6e6c7920626520616363657373656420627920757365722121210081525060200191505060405180910390fd5b6001600260008473ffffffffffffffffffffffffffffffffffffffff1673ffffffffffffffffffffffffffffffffffffffff16815260200190815260200160002060006101000a81548160ff02191690831515021790555060016004826040518082805190602001908083835b6020831015156103ac5780518252602082019150602081019050602083039250610387565b6001836020036101000a038019825116818451168082178552505050505050905001915050908152602001604051809103902060006101000a81548160ff0219169083151502179055505050565b610403336105a8565b1515610477576040517f08c379a000000000000000000000000000000000000000000000000000000000815260040180806020018281038252601f8152602001807f43616e206f6e6c7920626520616363657373656420627920757365722121210081525060200191505060405180910390fd5b60018060008373ffffffffffffffffffffffffffffffffffffffff1673ffffffffffffffffffffffffffffffffffffffff16815260200190815260200160002060006101000a81548160ff02191690831515021790555050565b6104da336105a8565b151561054e576040517f08c379a000000000000000000000000000000000000000000000000000000000815260040180806020018281038252601f8152602001807f43616e206f6e6c7920626520616363657373656420627920757365722121210081525060200191505060405180910390fd5b60016000808373ffffffffffffffffffffffffffffffffffffffff1673ffffffffffffffffffffffffffffffffffffffff16815260200190815260200160002060006101000a81548160ff02191690831515021790555050565b6000600360008373ffffffffffffffffffffffffffffffffffffffff1673ffffffffffffffffffffffffffffffffffffffff16815260200190815260200160002060009054906101000a900460ff16905091905056fea165627a7a723058200e540743df6f262332bd60a96ab2c2f53d51f130f465fa139005bdcb20133ec10029",
  "source": "pragma solidity ^0.5.0;\n\ncontract Permission{\n\n    mapping (address => bool) node;\n    mapping (address => bool) publisher;\n    mapping (address => bool) article;\n    mapping (address => bool) user;\n    mapping (string => bool) articleStash;                                          // [2.0]\n    \n    function isNode( address _temp ) private view returns(bool _val) {\n        _val = node[_temp];\n    }\n    function isPublisher( address _temp ) private view returns(bool _val) {\n        _val = publisher[_temp];\n    }\n    function isArticle( address _temp ) private view returns(bool _val) {\n        _val = article[_temp];\n    }\n    function isUser( address _temp ) private view returns(bool _val) {\n        _val = user[_temp];\n    }\n    modifier onlyNode{\n        require(isNode(msg.sender),\"Can only be accessed by node!!!\");\n        _;\n    }\n    modifier onlyPublisher{\n        require(isPublisher(msg.sender),\"Can only be accessed by publisher!!!\");\n        _;\n    }\n    modifier onlyArticle{\n        require(isArticle(msg.sender),\"Can only be accessed by article!!!\");\n        _;\n    }\n    modifier onlyUser{\n        require(isUser(msg.sender),\"Can only be accessed by user!!!\");\n        _;\n    }\n    function addNode(address _temp) public onlyUser {       //unused\n        node[_temp] = true;\n    }\n    function addPublisher(address _temp) public onlyUser {  //unused\n        publisher[_temp] = true;\n    }\n    function addArticle(address _temp, string memory _aHash) public onlyUser {\n        article[_temp] = true;\n        articleStash[_aHash] = true;                                                // [2.0] \n    }\n    function addUser(address _temp) public{\n        user[_temp] = true;\n    }\n}",
  "sourcePath": "/usr/share/workdir/UI/truffle/contracts/Permission.sol",
  "compiler": {
    "name": "solc",
    "version": "0.5.0+commit.1d4f565a.Emscripten.clang"
  },
  "schemaVersion": "3.0.6",
  "updatedAt": "2019-07-24T13:50:16.818Z",
  "devdoc": {
    "methods": {}
  },
  "userdoc": {
    "methods": {}
  }
}