{
  "contractName": "voting",
  "abi": [
    {
      "constant": false,
      "inputs": [
        {
          "name": "rcvr",
          "type": "address"
        }
      ],
      "name": "donate",
      "outputs": [],
      "payable": true,
      "stateMutability": "payable",
      "type": "function"
    },
    {
      "constant": true,
      "inputs": [
        {
          "name": "num",
          "type": "int64"
        }
      ],
      "name": "sqrt",
      "outputs": [
        {
          "name": "",
          "type": "int64"
        }
      ],
      "payable": false,
      "stateMutability": "pure",
      "type": "function"
    },
    {
      "constant": false,
      "inputs": [
        {
          "name": "_artid",
          "type": "address"
        },
        {
          "name": "_aHash",
          "type": "string"
        },
        {
          "name": "_link",
          "type": "string"
        },
        {
          "name": "_auth",
          "type": "address"
        },
        {
          "name": "_pub",
          "type": "address"
        },
        {
          "name": "_tmstamp",
          "type": "string"
        }
      ],
      "name": "newArticle",
      "outputs": [],
      "payable": false,
      "stateMutability": "nonpayable",
      "type": "function"
    },
    {
      "constant": false,
      "inputs": [
        {
          "name": "_temp",
          "type": "address"
        }
      ],
      "name": "addUser",
      "outputs": [],
      "payable": false,
      "stateMutability": "nonpayable",
      "type": "function"
    },
    {
      "constant": false,
      "inputs": [
        {
          "name": "_uid",
          "type": "address"
        },
        {
          "name": "_name",
          "type": "string"
        },
        {
          "name": "_email",
          "type": "string"
        }
      ],
      "name": "newUser",
      "outputs": [],
      "payable": false,
      "stateMutability": "nonpayable",
      "type": "function"
    },
    {
      "constant": false,
      "inputs": [
        {
          "name": "_temp",
          "type": "address"
        },
        {
          "name": "_aHash",
          "type": "string"
        }
      ],
      "name": "addArticle",
      "outputs": [],
      "payable": false,
      "stateMutability": "nonpayable",
      "type": "function"
    },
    {
      "constant": true,
      "inputs": [
        {
          "name": "",
          "type": "address"
        }
      ],
      "name": "art",
      "outputs": [
        {
          "name": "artHash",
          "type": "string"
        },
        {
          "name": "author",
          "type": "address"
        },
        {
          "name": "publisher",
          "type": "address"
        },
        {
          "name": "link",
          "type": "string"
        },
        {
          "name": "timestamp",
          "type": "string"
        },
        {
          "name": "aRank",
          "type": "int64"
        },
        {
          "name": "uVote",
          "type": "int64"
        },
        {
          "name": "dVote",
          "type": "int64"
        }
      ],
      "payable": false,
      "stateMutability": "view",
      "type": "function"
    },
    {
      "constant": true,
      "inputs": [
        {
          "name": "_userAddress",
          "type": "address"
        }
      ],
      "name": "getUser",
      "outputs": [
        {
          "name": "name",
          "type": "string"
        },
        {
          "name": "email",
          "type": "string"
        }
      ],
      "payable": false,
      "stateMutability": "view",
      "type": "function"
    },
    {
      "constant": false,
      "inputs": [
        {
          "name": "_temp",
          "type": "address"
        }
      ],
      "name": "addPublisher",
      "outputs": [],
      "payable": false,
      "stateMutability": "nonpayable",
      "type": "function"
    },
    {
      "constant": false,
      "inputs": [
        {
          "name": "_temp",
          "type": "address"
        }
      ],
      "name": "addNode",
      "outputs": [],
      "payable": false,
      "stateMutability": "nonpayable",
      "type": "function"
    },
    {
      "constant": true,
      "inputs": [
        {
          "name": "h",
          "type": "string"
        }
      ],
      "name": "chkArticleUniq",
      "outputs": [
        {
          "name": "b",
          "type": "bool"
        }
      ],
      "payable": false,
      "stateMutability": "view",
      "type": "function"
    },
    {
      "constant": true,
      "inputs": [
        {
          "name": "_artid",
          "type": "address"
        }
      ],
      "name": "getArticle",
      "outputs": [
        {
          "name": "_artHash",
          "type": "string"
        },
        {
          "name": "_author",
          "type": "address"
        },
        {
          "name": "_publisher",
          "type": "address"
        },
        {
          "name": "_link",
          "type": "string"
        },
        {
          "name": "_timestamp",
          "type": "string"
        },
        {
          "name": "_aRank",
          "type": "int256"
        },
        {
          "name": "_uVote",
          "type": "int256"
        },
        {
          "name": "_dVote",
          "type": "int256"
        }
      ],
      "payable": false,
      "stateMutability": "view",
      "type": "function"
    },
    {
      "constant": true,
      "inputs": [
        {
          "name": "x",
          "type": "address"
        }
      ],
      "name": "toString",
      "outputs": [
        {
          "name": "",
          "type": "string"
        }
      ],
      "payable": false,
      "stateMutability": "pure",
      "type": "function"
    },
    {
      "constant": false,
      "inputs": [
        {
          "name": "_up",
          "type": "bool"
        },
        {
          "name": "_artAddress",
          "type": "address"
        }
      ],
      "name": "voteArticle",
      "outputs": [],
      "payable": false,
      "stateMutability": "nonpayable",
      "type": "function"
    },
    {
      "constant": false,
      "inputs": [
        {
          "name": "_artAddress",
          "type": "address"
        }
      ],
      "name": "updateRanking",
      "outputs": [],
      "payable": false,
      "stateMutability": "nonpayable",
      "type": "function"
    },
    {
      "constant": true,
      "inputs": [
        {
          "name": "_artAddress",
          "type": "address"
        }
      ],
      "name": "getVote",
      "outputs": [
        {
          "name": "_artVote",
          "type": "uint8"
        }
      ],
      "payable": false,
      "stateMutability": "view",
      "type": "function"
    }
  ],
  "bytecode": "0x608060405234801561001057600080fd5b506133c9806100206000396000f3fe6080604052600436106100e5576000357c0100000000000000000000000000000000000000000000000000000000900463ffffffff168062362a95146100ea5780630e96becb1461012e57806318fd976314610186578063421b2d8b146103dc5780634a746d051461042d5780635293cb20146105ac57806356ca623e146106945780636648a1be1461075e5780636a1e55d81461098d5780636f77926b146109ea578063763f323d14610b205780638d337b8114610b715780639d95f1cc14610be4578063af811c8914610c35578063b0460aa914610d15578063e0f9b3f614610f32575b600080fd5b61012c6004803603602081101561010057600080fd5b81019080803573ffffffffffffffffffffffffffffffffffffffff169060200190929190505050610f83565b005b34801561013a57600080fd5b5061016a6004803603602081101561015157600080fd5b81019080803560070b90602001909291905050506110fe565b604051808260070b60070b815260200191505060405180910390f35b34801561019257600080fd5b506103da600480360360c08110156101a957600080fd5b81019080803573ffffffffffffffffffffffffffffffffffffffff169060200190929190803590602001906401000000008111156101e657600080fd5b8201836020820111156101f857600080fd5b8035906020019184600183028401116401000000008311171561021a57600080fd5b91908080601f016020809104026020016040519081016040528093929190818152602001838380828437600081840152601f19601f8201169050808301925050505050505091929192908035906020019064010000000081111561027d57600080fd5b82018360208201111561028f57600080fd5b803590602001918460018302840111640100000000831117156102b157600080fd5b91908080601f016020809104026020016040519081016040528093929190818152602001838380828437600081840152601f19601f820116905080830192505050505050509192919290803573ffffffffffffffffffffffffffffffffffffffff169060200190929190803573ffffffffffffffffffffffffffffffffffffffff1690602001909291908035906020019064010000000081111561035457600080fd5b82018360208201111561036657600080fd5b8035906020019184600183028401116401000000008311171561038857600080fd5b91908080601f016020809104026020016040519081016040528093929190818152602001838380828437600081840152601f19601f820116905080830192505050505050509192919290505050611191565b005b3480156103e857600080fd5b5061042b600480360360208110156103ff57600080fd5b81019080803573ffffffffffffffffffffffffffffffffffffffff169060200190929190505050611545565b005b34801561043957600080fd5b506105aa6004803603606081101561045057600080fd5b81019080803573ffffffffffffffffffffffffffffffffffffffff1690602001909291908035906020019064010000000081111561048d57600080fd5b82018360208201111561049f57600080fd5b803590602001918460018302840111640100000000831117156104c157600080fd5b91908080601f016020809104026020016040519081016040528093929190818152602001838380828437600081840152601f19601f8201169050808301925050505050505091929192908035906020019064010000000081111561052457600080fd5b82018360208201111561053657600080fd5b8035906020019184600183028401116401000000008311171561055857600080fd5b91908080601f016020809104026020016040519081016040528093929190818152602001838380828437600081840152601f19601f8201169050808301925050505050505091929192905050506115a0565b005b3480156105b857600080fd5b50610692600480360360408110156105cf57600080fd5b81019080803573ffffffffffffffffffffffffffffffffffffffff1690602001909291908035906020019064010000000081111561060c57600080fd5b82018360208201111561061e57600080fd5b8035906020019184600183028401116401000000008311171561064057600080fd5b91908080601f016020809104026020016040519081016040528093929190818152602001838380828437600081840152601f19601f820116905080830192505050505050509192919290505050611725565b005b3480156106a057600080fd5b506106e3600480360360208110156106b757600080fd5b81019080803573ffffffffffffffffffffffffffffffffffffffff169060200190929190505050611882565b6040518080602001828103825283818151815260200191508051906020019080838360005b83811015610723578082015181840152602081019050610708565b50505050905090810190601f1680156107505780820380516001836020036101000a031916815260200191505b509250505060405180910390f35b34801561076a57600080fd5b506107ad6004803603602081101561078157600080fd5b81019080803573ffffffffffffffffffffffffffffffffffffffff16906020019092919050505061196d565b60405180806020018973ffffffffffffffffffffffffffffffffffffffff1673ffffffffffffffffffffffffffffffffffffffff1681526020018873ffffffffffffffffffffffffffffffffffffffff1673ffffffffffffffffffffffffffffffffffffffff16815260200180602001806020018760070b60070b81526020018660070b60070b81526020018560070b60070b815260200184810384528c818151815260200191508051906020019080838360005b8381101561087d578082015181840152602081019050610862565b50505050905090810190601f1680156108aa5780820380516001836020036101000a031916815260200191505b50848103835289818151815260200191508051906020019080838360005b838110156108e35780820151818401526020810190506108c8565b50505050905090810190601f1680156109105780820380516001836020036101000a031916815260200191505b50848103825288818151815260200191508051906020019080838360005b8381101561094957808201518184015260208101905061092e565b50505050905090810190601f1680156109765780820380516001836020036101000a031916815260200191505b509b50505050505050505050505060405180910390f35b34801561099957600080fd5b506109e8600480360360408110156109b057600080fd5b81019080803515159060200190929190803573ffffffffffffffffffffffffffffffffffffffff169060200190929190505050611be4565b005b3480156109f657600080fd5b50610a3960048036036020811015610a0d57600080fd5b81019080803573ffffffffffffffffffffffffffffffffffffffff1690602001909291905050506127d5565b604051808060200180602001838103835285818151815260200191508051906020019080838360005b83811015610a7d578082015181840152602081019050610a62565b50505050905090810190601f168015610aaa5780820380516001836020036101000a031916815260200191505b50838103825284818151815260200191508051906020019080838360005b83811015610ae3578082015181840152602081019050610ac8565b50505050905090810190601f168015610b105780820380516001836020036101000a031916815260200191505b5094505050505060405180910390f35b348015610b2c57600080fd5b50610b6f60048036036020811015610b4357600080fd5b81019080803573ffffffffffffffffffffffffffffffffffffffff169060200190929190505050612997565b005b348015610b7d57600080fd5b50610bc060048036036020811015610b9457600080fd5b81019080803573ffffffffffffffffffffffffffffffffffffffff169060200190929190505050612a6e565b60405180826002811115610bd057fe5b60ff16815260200191505060405180910390f35b348015610bf057600080fd5b50610c3360048036036020811015610c0757600080fd5b81019080803573ffffffffffffffffffffffffffffffffffffffff169060200190929190505050612b04565b005b348015610c4157600080fd5b50610cfb60048036036020811015610c5857600080fd5b8101908080359060200190640100000000811115610c7557600080fd5b820183602082011115610c8757600080fd5b80359060200191846001830284011164010000000083111715610ca957600080fd5b91908080601f016020809104026020016040519081016040528093929190818152602001838380828437600081840152601f19601f820116905080830192505050505050509192919290505050612bdb565b604051808215151515815260200191505060405180910390f35b348015610d2157600080fd5b50610d6460048036036020811015610d3857600080fd5b81019080803573ffffffffffffffffffffffffffffffffffffffff169060200190929190505050612c6e565b60405180806020018973ffffffffffffffffffffffffffffffffffffffff1673ffffffffffffffffffffffffffffffffffffffff1681526020018873ffffffffffffffffffffffffffffffffffffffff1673ffffffffffffffffffffffffffffffffffffffff168152602001806020018060200187815260200186815260200185815260200184810384528c818151815260200191508051906020019080838360005b83811015610e22578082015181840152602081019050610e07565b50505050905090810190601f168015610e4f5780820380516001836020036101000a031916815260200191505b50848103835289818151815260200191508051906020019080838360005b83811015610e88578082015181840152602081019050610e6d565b50505050905090810190601f168015610eb55780820380516001836020036101000a031916815260200191505b50848103825288818151815260200191508051906020019080838360005b83811015610eee578082015181840152602081019050610ed3565b50505050905090810190601f168015610f1b5780820380516001836020036101000a031916815260200191505b509b50505050505050505050505060405180910390f35b348015610f3e57600080fd5b50610f8160048036036020811015610f5557600080fd5b81019080803573ffffffffffffffffffffffffffffffffffffffff1690602001909291905050506130e6565b005b600034111515610ffb576040517f08c379a000000000000000000000000000000000000000000000000000000000815260040180806020018281038252601e8152602001807f56616c75652073686f756c642062652067726561746572207468616e2030000081525060200191505060405180910390fd5b61100361325e565b61100c33611882565b816000018190525034816020018181525050600960008373ffffffffffffffffffffffffffffffffffffffff1673ffffffffffffffffffffffffffffffffffffffff168152602001908152602001600020819080600181540180825580915050906001820390600052602060002090600202016000909192909190915060008201518160000190805190602001906110a5929190613278565b50602082015181600101555050508173ffffffffffffffffffffffffffffffffffffffff166108fc349081150290604051600060405180830381858888f193505050501580156110f9573d6000803e3d6000fd5b505050565b600060018260070b1415611115576001905061118c565b600060028360070b81151561112657fe5b05905060008390505b8060070b8260070b12156111865781905060008260020260070b838402860360070b81151561115a57fe5b059050600081840190508060020260070b82830260070b81151561117a57fe5b0581039350505061112f565b81925050505b919050565b61119a33613208565b151561120e576040517f08c379a000000000000000000000000000000000000000000000000000000000815260040180806020018281038252601f8152602001807f43616e206f6e6c7920626520616363657373656420627920757365722121210081525060200191505060405180910390fd5b600115156004866040518082805190602001908083835b60208310151561124a5780518252602082019150602081019050602083039250611225565b6001836020036101000a038019825116818451168082178552505050505050905001915050908152602001604051809103902060009054906101000a900460ff16151514151515611303576040517f08c379a00000000000000000000000000000000000000000000000000000000081526004018080602001828103825260168152602001807f41727469636c6520616c7265616479206578697374730000000000000000000081525060200191505060405180910390fd5b610100604051908101604052808681526020018473ffffffffffffffffffffffffffffffffffffffff1681526020018373ffffffffffffffffffffffffffffffffffffffff168152602001858152602001828152602001600060070b8152602001600060070b8152602001600060070b815250600860008873ffffffffffffffffffffffffffffffffffffffff1673ffffffffffffffffffffffffffffffffffffffff16815260200190815260200160002060008201518160000190805190602001906113d1929190613278565b5060208201518160010160006101000a81548173ffffffffffffffffffffffffffffffffffffffff021916908373ffffffffffffffffffffffffffffffffffffffff16021790555060408201518160020160006101000a81548173ffffffffffffffffffffffffffffffffffffffff021916908373ffffffffffffffffffffffffffffffffffffffff160217905550606082015181600301908051906020019061147c929190613278565b506080820151816004019080519060200190611499929190613278565b5060a08201518160050160006101000a81548167ffffffffffffffff021916908360070b67ffffffffffffffff16021790555060c08201518160050160086101000a81548167ffffffffffffffff021916908360070b67ffffffffffffffff16021790555060e08201518160050160106101000a81548167ffffffffffffffff021916908360070b67ffffffffffffffff16021790555090505061153d8686611725565b505050505050565b6001600360008373ffffffffffffffffffffffffffffffffffffffff1673ffffffffffffffffffffffffffffffffffffffff16815260200190815260200160002060006101000a81548160ff02191690831515021790555050565b60011515600360008573ffffffffffffffffffffffffffffffffffffffff1673ffffffffffffffffffffffffffffffffffffffff16815260200190815260200160002060009054906101000a900460ff16151514151515611669576040517f08c379a00000000000000000000000000000000000000000000000000000000081526004018080602001828103825260138152602001807f5573657220616c7265616479206578697374730000000000000000000000000081525060200191505060405180910390fd5b81600760008573ffffffffffffffffffffffffffffffffffffffff1673ffffffffffffffffffffffffffffffffffffffff16815260200190815260200160002060000190805190602001906116bf9291906132f8565b5080600760008573ffffffffffffffffffffffffffffffffffffffff1673ffffffffffffffffffffffffffffffffffffffff16815260200190815260200160002060010190805190602001906117169291906132f8565b5061172083611545565b505050565b61172e33613208565b15156117a2576040517f08c379a000000000000000000000000000000000000000000000000000000000815260040180806020018281038252601f8152602001807f43616e206f6e6c7920626520616363657373656420627920757365722121210081525060200191505060405180910390fd5b6001600260008473ffffffffffffffffffffffffffffffffffffffff1673ffffffffffffffffffffffffffffffffffffffff16815260200190815260200160002060006101000a81548160ff02191690831515021790555060016004826040518082805190602001908083835b602083101515611834578051825260208201915060208101905060208303925061180f565b6001836020036101000a038019825116818451168082178552505050505050905001915050908152602001604051809103902060006101000a81548160ff0219169083151502179055505050565b60608060146040519080825280601f01601f1916602001820160405280156118b95781602001600182028038833980820191505090505b50905060008090505b6014811015611963578060130360080260020a8473ffffffffffffffffffffffffffffffffffffffff168115156118f557fe5b047f010000000000000000000000000000000000000000000000000000000000000002828281518110151561192657fe5b9060200101907effffffffffffffffffffffffffffffffffffffffffffffffffffffffffffff1916908160001a90535080806001019150506118c2565b5080915050919050565b6008602052806000526040600020600091509050806000018054600181600116156101000203166002900480601f016020809104026020016040519081016040528092919081815260200182805460018160011615610100020316600290048015611a195780601f106119ee57610100808354040283529160200191611a19565b820191906000526020600020905b8154815290600101906020018083116119fc57829003601f168201915b5050505050908060010160009054906101000a900473ffffffffffffffffffffffffffffffffffffffff16908060020160009054906101000a900473ffffffffffffffffffffffffffffffffffffffff1690806003018054600181600116156101000203166002900480601f016020809104026020016040519081016040528092919081815260200182805460018160011615610100020316600290048015611b035780601f10611ad857610100808354040283529160200191611b03565b820191906000526020600020905b815481529060010190602001808311611ae657829003601f168201915b505050505090806004018054600181600116156101000203166002900480601f016020809104026020016040519081016040528092919081815260200182805460018160011615610100020316600290048015611ba15780601f10611b7657610100808354040283529160200191611ba1565b820191906000526020600020905b815481529060010190602001808311611b8457829003601f168201915b5050505050908060050160009054906101000a900460070b908060050160089054906101000a900460070b908060050160109054906101000a900460070b905088565b81156121db5760006002811115611bf757fe5b600860008373ffffffffffffffffffffffffffffffffffffffff1673ffffffffffffffffffffffffffffffffffffffff16815260200190815260200160002060060160003373ffffffffffffffffffffffffffffffffffffffff1673ffffffffffffffffffffffffffffffffffffffff16815260200190815260200160002060009054906101000a900460ff166002811115611c8f57fe5b1415611dba576001600860008373ffffffffffffffffffffffffffffffffffffffff1673ffffffffffffffffffffffffffffffffffffffff16815260200190815260200160002060060160003373ffffffffffffffffffffffffffffffffffffffff1673ffffffffffffffffffffffffffffffffffffffff16815260200190815260200160002060006101000a81548160ff02191690836002811115611d3157fe5b02179055506001600860008373ffffffffffffffffffffffffffffffffffffffff1673ffffffffffffffffffffffffffffffffffffffff16815260200190815260200160002060050160088282829054906101000a900460070b0192506101000a81548167ffffffffffffffff021916908360070b67ffffffffffffffff1602179055506121d6565b600280811115611dc657fe5b600860008373ffffffffffffffffffffffffffffffffffffffff1673ffffffffffffffffffffffffffffffffffffffff16815260200190815260200160002060060160003373ffffffffffffffffffffffffffffffffffffffff1673ffffffffffffffffffffffffffffffffffffffff16815260200190815260200160002060009054906101000a900460ff166002811115611e5e57fe5b1415612008576001600860008373ffffffffffffffffffffffffffffffffffffffff1673ffffffffffffffffffffffffffffffffffffffff16815260200190815260200160002060060160003373ffffffffffffffffffffffffffffffffffffffff1673ffffffffffffffffffffffffffffffffffffffff16815260200190815260200160002060006101000a81548160ff02191690836002811115611f0057fe5b02179055506001600860008373ffffffffffffffffffffffffffffffffffffffff1673ffffffffffffffffffffffffffffffffffffffff16815260200190815260200160002060050160088282829054906101000a900460070b0192506101000a81548167ffffffffffffffff021916908360070b67ffffffffffffffff1602179055506001600860008373ffffffffffffffffffffffffffffffffffffffff1673ffffffffffffffffffffffffffffffffffffffff16815260200190815260200160002060050160108282829054906101000a900460070b0392506101000a81548167ffffffffffffffff021916908360070b67ffffffffffffffff1602179055506121d5565b6001600281111561201557fe5b600860008373ffffffffffffffffffffffffffffffffffffffff1673ffffffffffffffffffffffffffffffffffffffff16815260200190815260200160002060060160003373ffffffffffffffffffffffffffffffffffffffff1673ffffffffffffffffffffffffffffffffffffffff16815260200190815260200160002060009054906101000a900460ff1660028111156120ad57fe5b14156121d4576000600860008373ffffffffffffffffffffffffffffffffffffffff1673ffffffffffffffffffffffffffffffffffffffff16815260200190815260200160002060060160003373ffffffffffffffffffffffffffffffffffffffff1673ffffffffffffffffffffffffffffffffffffffff16815260200190815260200160002060006101000a81548160ff0219169083600281111561214f57fe5b02179055506001600860008373ffffffffffffffffffffffffffffffffffffffff1673ffffffffffffffffffffffffffffffffffffffff16815260200190815260200160002060050160088282829054906101000a900460070b0392506101000a81548167ffffffffffffffff021916908360070b67ffffffffffffffff1602179055505b5b5b6127c8565b600060028111156121e857fe5b600860008373ffffffffffffffffffffffffffffffffffffffff1673ffffffffffffffffffffffffffffffffffffffff16815260200190815260200160002060060160003373ffffffffffffffffffffffffffffffffffffffff1673ffffffffffffffffffffffffffffffffffffffff16815260200190815260200160002060009054906101000a900460ff16600281111561228057fe5b14156123ab576002600860008373ffffffffffffffffffffffffffffffffffffffff1673ffffffffffffffffffffffffffffffffffffffff16815260200190815260200160002060060160003373ffffffffffffffffffffffffffffffffffffffff1673ffffffffffffffffffffffffffffffffffffffff16815260200190815260200160002060006101000a81548160ff0219169083600281111561232257fe5b02179055506001600860008373ffffffffffffffffffffffffffffffffffffffff1673ffffffffffffffffffffffffffffffffffffffff16815260200190815260200160002060050160108282829054906101000a900460070b0192506101000a81548167ffffffffffffffff021916908360070b67ffffffffffffffff1602179055506127c7565b600160028111156123b857fe5b600860008373ffffffffffffffffffffffffffffffffffffffff1673ffffffffffffffffffffffffffffffffffffffff16815260200190815260200160002060060160003373ffffffffffffffffffffffffffffffffffffffff1673ffffffffffffffffffffffffffffffffffffffff16815260200190815260200160002060009054906101000a900460ff16600281111561245057fe5b14156125fa576002600860008373ffffffffffffffffffffffffffffffffffffffff1673ffffffffffffffffffffffffffffffffffffffff16815260200190815260200160002060060160003373ffffffffffffffffffffffffffffffffffffffff1673ffffffffffffffffffffffffffffffffffffffff16815260200190815260200160002060006101000a81548160ff021916908360028111156124f257fe5b02179055506001600860008373ffffffffffffffffffffffffffffffffffffffff1673ffffffffffffffffffffffffffffffffffffffff16815260200190815260200160002060050160088282829054906101000a900460070b0392506101000a81548167ffffffffffffffff021916908360070b67ffffffffffffffff1602179055506001600860008373ffffffffffffffffffffffffffffffffffffffff1673ffffffffffffffffffffffffffffffffffffffff16815260200190815260200160002060050160108282829054906101000a900460070b0192506101000a81548167ffffffffffffffff021916908360070b67ffffffffffffffff1602179055506127c6565b60028081111561260657fe5b600860008373ffffffffffffffffffffffffffffffffffffffff1673ffffffffffffffffffffffffffffffffffffffff16815260200190815260200160002060060160003373ffffffffffffffffffffffffffffffffffffffff1673ffffffffffffffffffffffffffffffffffffffff16815260200190815260200160002060009054906101000a900460ff16600281111561269e57fe5b14156127c5576000600860008373ffffffffffffffffffffffffffffffffffffffff1673ffffffffffffffffffffffffffffffffffffffff16815260200190815260200160002060060160003373ffffffffffffffffffffffffffffffffffffffff1673ffffffffffffffffffffffffffffffffffffffff16815260200190815260200160002060006101000a81548160ff0219169083600281111561274057fe5b02179055506001600860008373ffffffffffffffffffffffffffffffffffffffff1673ffffffffffffffffffffffffffffffffffffffff16815260200190815260200160002060050160108282829054906101000a900460070b0392506101000a81548167ffffffffffffffff021916908360070b67ffffffffffffffff1602179055505b5b5b5b6127d1816130e6565b5050565b606080600760008473ffffffffffffffffffffffffffffffffffffffff1673ffffffffffffffffffffffffffffffffffffffff1681526020019081526020016000206000018054600181600116156101000203166002900480601f0160208091040260200160405190810160405280929190818152602001828054600181600116156101000203166002900480156128ae5780601f10612883576101008083540402835291602001916128ae565b820191906000526020600020905b81548152906001019060200180831161289157829003601f168201915b50505050509150600760008473ffffffffffffffffffffffffffffffffffffffff1673ffffffffffffffffffffffffffffffffffffffff1681526020019081526020016000206001018054600181600116156101000203166002900480601f01602080910402602001604051908101604052809291908181526020018280546001816001161561010002031660029004801561298b5780601f106129605761010080835404028352916020019161298b565b820191906000526020600020905b81548152906001019060200180831161296e57829003601f168201915b50505050509050915091565b6129a033613208565b1515612a14576040517f08c379a000000000000000000000000000000000000000000000000000000000815260040180806020018281038252601f8152602001807f43616e206f6e6c7920626520616363657373656420627920757365722121210081525060200191505060405180910390fd5b60018060008373ffffffffffffffffffffffffffffffffffffffff1673ffffffffffffffffffffffffffffffffffffffff16815260200190815260200160002060006101000a81548160ff02191690831515021790555050565b6000600860008373ffffffffffffffffffffffffffffffffffffffff1673ffffffffffffffffffffffffffffffffffffffff16815260200190815260200160002060060160003373ffffffffffffffffffffffffffffffffffffffff1673ffffffffffffffffffffffffffffffffffffffff16815260200190815260200160002060009054906101000a900460ff169050919050565b612b0d33613208565b1515612b81576040517f08c379a000000000000000000000000000000000000000000000000000000000815260040180806020018281038252601f8152602001807f43616e206f6e6c7920626520616363657373656420627920757365722121210081525060200191505060405180910390fd5b60016000808373ffffffffffffffffffffffffffffffffffffffff1673ffffffffffffffffffffffffffffffffffffffff16815260200190815260200160002060006101000a81548160ff02191690831515021790555050565b60006004826040518082805190602001908083835b602083101515612c155780518252602082019150602081019050602083039250612bf0565b6001836020036101000a038019825116818451168082178552505050505050905001915050908152602001604051809103902060009054906101000a900460ff1615612c645760009050612c69565b600190505b919050565b60606000806060806000806000600860008a73ffffffffffffffffffffffffffffffffffffffff1673ffffffffffffffffffffffffffffffffffffffff1681526020019081526020016000206000018054600181600116156101000203166002900480601f016020809104026020016040519081016040528092919081815260200182805460018160011615610100020316600290048015612d515780601f10612d2657610100808354040283529160200191612d51565b820191906000526020600020905b815481529060010190602001808311612d3457829003601f168201915b50505050509750600860008a73ffffffffffffffffffffffffffffffffffffffff1673ffffffffffffffffffffffffffffffffffffffff16815260200190815260200160002060010160009054906101000a900473ffffffffffffffffffffffffffffffffffffffff169650600860008a73ffffffffffffffffffffffffffffffffffffffff1673ffffffffffffffffffffffffffffffffffffffff16815260200190815260200160002060020160009054906101000a900473ffffffffffffffffffffffffffffffffffffffff169550600860008a73ffffffffffffffffffffffffffffffffffffffff1673ffffffffffffffffffffffffffffffffffffffff1681526020019081526020016000206003018054600181600116156101000203166002900480601f016020809104026020016040519081016040528092919081815260200182805460018160011615610100020316600290048015612ef85780601f10612ecd57610100808354040283529160200191612ef8565b820191906000526020600020905b815481529060010190602001808311612edb57829003601f168201915b50505050509450600860008a73ffffffffffffffffffffffffffffffffffffffff1673ffffffffffffffffffffffffffffffffffffffff1681526020019081526020016000206004018054600181600116156101000203166002900480601f016020809104026020016040519081016040528092919081815260200182805460018160011615610100020316600290048015612fd55780601f10612faa57610100808354040283529160200191612fd5565b820191906000526020600020905b815481529060010190602001808311612fb857829003601f168201915b50505050509350600860008a73ffffffffffffffffffffffffffffffffffffffff1673ffffffffffffffffffffffffffffffffffffffff16815260200190815260200160002060050160009054906101000a900460070b60070b9250600860008a73ffffffffffffffffffffffffffffffffffffffff1673ffffffffffffffffffffffffffffffffffffffff16815260200190815260200160002060050160089054906101000a900460070b60070b9150600860008a73ffffffffffffffffffffffffffffffffffffffff1673ffffffffffffffffffffffffffffffffffffffff16815260200190815260200160002060050160109054906101000a900460070b60070b9050919395975091939597565b61313e600860008373ffffffffffffffffffffffffffffffffffffffff1673ffffffffffffffffffffffffffffffffffffffff16815260200190815260200160002060050160109054906101000a900460070b6110fe565b613196600860008473ffffffffffffffffffffffffffffffffffffffff1673ffffffffffffffffffffffffffffffffffffffff16815260200190815260200160002060050160089054906101000a900460070b6110fe565b03600a02600860008373ffffffffffffffffffffffffffffffffffffffff1673ffffffffffffffffffffffffffffffffffffffff16815260200190815260200160002060050160006101000a81548167ffffffffffffffff021916908360070b67ffffffffffffffff16021790555050565b6000600360008373ffffffffffffffffffffffffffffffffffffffff1673ffffffffffffffffffffffffffffffffffffffff16815260200190815260200160002060009054906101000a900460ff169050919050565b604080519081016040528060608152602001600081525090565b828054600181600116156101000203166002900490600052602060002090601f016020900481019282601f106132b957805160ff19168380011785556132e7565b828001600101855582156132e7579182015b828111156132e65782518255916020019190600101906132cb565b5b5090506132f49190613378565b5090565b828054600181600116156101000203166002900490600052602060002090601f016020900481019282601f1061333957805160ff1916838001178555613367565b82800160010185558215613367579182015b8281111561336657825182559160200191906001019061334b565b5b5090506133749190613378565b5090565b61339a91905b8082111561339657600081600090555060010161337e565b5090565b9056fea165627a7a72305820b72fb1734e85d8761c8061d51c25054f3d5000f863539a21df90f6e37ad64f9b0029",
  "source": "pragma solidity ^0.5.0;\n\nimport './AccountManagment.sol';\nimport './Sqrt.sol';\n\ncontract voting is AccountManagment, Sqrt{\n\n    function voteArticle(bool _up, address  _artAddress) public {\n        if(_up){                                                             //upvote clicked\n            if(art[_artAddress].artVotes[msg.sender] == vote.DEFAULT){          // if( neither Up nor down voted )\n                art[_artAddress].artVotes[msg.sender] = vote.UP;                    // set vote to UP in mapping art(user_address -> vote)\n                art[_artAddress].uVote += 1;                                        // increment upVote count\n            }\n            else if(art[_artAddress].artVotes[msg.sender] == vote.DOWN){        // if( down voted earlier )\n                art[_artAddress].artVotes[msg.sender] = vote.UP;                    // set vote to UP in mapping art(user_address -> vote)\n                art[_artAddress].uVote += 1;                                        // increment upVote count\n                art[_artAddress].dVote -= 1;                                        // decrement downVote count\n            }\n            else if(art[_artAddress].artVotes[msg.sender] == vote.UP){          // if( already upvoted )\n                art[_artAddress].artVotes[msg.sender] = vote.DEFAULT;               // set vote to DEFAULT (cancelled vote) in mapping art(user_address -> vote)\n                art[_artAddress].uVote -= 1;                                        // decrement upVote count\n            }\n        }\n        else{                                                               //downvote clicked\n            if(art[_artAddress].artVotes[msg.sender] == vote.DEFAULT){          // if( neither Up nor down voted )\n                art[_artAddress].artVotes[msg.sender] = vote.DOWN;                  // set vote to DOWN in mapping art(user_address -> vote)\n                art[_artAddress].dVote += 1;                                        // increment upVote count\n            }\n            else if(art[_artAddress].artVotes[msg.sender] == vote.UP){          // if( up voted earlier )\n                art[_artAddress].artVotes[msg.sender] = vote.DOWN;                  // set vote to DOWN in mapping art(user_address -> vote)\n                art[_artAddress].uVote -= 1;                                        // decrement upVote count\n                art[_artAddress].dVote += 1;                                        // increment downVote count\n            }\n            else if(art[_artAddress].artVotes[msg.sender] == vote.DOWN){        // if( already downvoted )\n                art[_artAddress].artVotes[msg.sender] = vote.DEFAULT;               // set vote to DEFAULT (cancelled vote) in mapping art(user_address -> vote)\n                art[_artAddress].dVote -= 1;                                        // decrement downVote count\n            }\n        }\n        updateRanking(_artAddress);         // update articles ranking\n    }\n\n    function updateRanking(address _artAddress) public{\n      art[_artAddress].aRank = 10*(sqrt(art[_artAddress].uVote) - sqrt(art[_artAddress].dVote));\n    }\n\n    function getVote(address _artAddress) public view returns(vote _artVote) {\n        _artVote = art[_artAddress].artVotes[msg.sender];\n    }\n\n}\n\n/*\n\nstruct votes{\n        address adr;\n        bool v;\n    }\n\n    mapping (address => votes[]) public artVotes;\n\n    function getVote(uint _index, address _addr)public view returns(bool){\n        return artVotes[_addr][_index].v;\n    }\n\n//for(uint i = 0; i < artVotes[_artAddress].length; i++)\n            // {\n            //     if(artVotes[_artAddress][i].adr == msg.sender){\n            //         found = true;\n            //         if(artVotes[_artAddress][i].v == true){\n            //             delete (artVotes[_artAddress])[i];\n            //             art[_artAddress].uVote -= 1;\n            //         }\n            //         else{\n            //             artVotes[_artAddress][i].v = true;\n            //             art[_artAddress].uVote += 1;\n            //             art[_artAddress].dVote -= 1;\n            //         }\n            //     }\n            // }\n            // if(!found){\n            //     artVotes[_artAddress].push(votes(msg.sender, true));\n            //     art[_artAddress].uVote += 1;\n            // }\n            // art[_artAddress].artVotes[msg.sender] = vote.UP;{\n            // for(uint i = 0; i < artVotes[_artAddress].length; i++)\n            // {\n            //     if(artVotes[_artAddress][i].adr == msg.sender){\n            //         found = true;\n            //         if(artVotes[_artAddress][i].v == false){\n            //             delete (artVotes[_artAddress])[i];\n            //             art[_artAddress].dVote -= 1;\n            //         }\n            //         else{\n            //             artVotes[_artAddress][i].v = false;\n            //             art[_artAddress].uVote -= 1;\n            //             art[_artAddress].dVote += 1;\n            //         }\n            //     }\n            // }\n            // if(!found){\n            //     artVotes[_artAddress].push(votes(msg.sender, false));\n            //     art[_artAddress].dVote += 1;\n            // }\n            // art[_artAddress].artVotes[msg.sender] = vote.DOWN;\n        //}\n        */",
  "sourcePath": "/usr/share/workdir/UI/truffle/contracts/voting.sol",
  "compiler": {
    "name": "solc",
    "version": "0.5.0+commit.1d4f565a.Emscripten.clang"
  },
  "schemaVersion": "3.0.6",
  "updatedAt": "2019-07-24T13:50:16.820Z",
  "devdoc": {
    "methods": {}
  },
  "userdoc": {
    "methods": {}
  }
}